:020000040800F2
:1000000000000320091200082D0700082F07000830
:10001000310700083307000835070008000000001A
:10002000000000000000000000000000370700088A
:1000300039070008000000003B0700083D070008E2
:1000400059120008591200085912000859120008E4
:1000500059120008591200085912000859120008D4
:1000600059120008591200085912000859120008C4
:1000700059120008591200085912000859120008B4
:1000800059120008591200085912000859120008A4
:100090005912000859120008591200085912000894
:1000A0005912000859120008591200085912000884
:1000B0005912000859120008591200085912000874
:1000C0005912000859120008591200085912000864
:1000D0005912000859120008591200085912000854
:1000E0005912000859120008591200085912000844
:1000F0005912000859120008591200085912000834
:100100005912000859120008591200085912000823
:100110005912000859120008591200085912000813
:100120005912000859120008591200085912000803
:1001300059120008591200085912000859120008F3
:1001400059120008591200085912000859120008E3
:1001500059120008591200085912000859120008D3
:1001600059120008591200085912000859120008C3
:100170005912000859120008591200080000000026
:1001800059120008591200085912000859120008A3
:100190005912000859120008591200085912000893
:0C01A000591200085912000859120008FA
:1001AC000348044B834202D0034B03B118477047FA
:1001BC000C0000200C000020000000000548064B3D
:1001CC001B1AD90F01EBA301491002D0034B03B149
:1001DC00184770470C0000200C00002000000000A5
:1001EC0010B5064C237843B9FFF7DAFF044B13B173
:1001FC000448AFF300800123237010BD0C000020D5
:10020C00000000005C12000808B5044B1BB1044947
:10021C000448AFF30080BDE80840CFE700000000C1
:10022C00100000205C12000870B50F4B0F4DAB4254
:10023C00A3EB050607D0B610002455F8043B013497
:10024C009847A642F9D801F003F8094D094B5E1BFB
:10025C00AB424FEAA60606D0002455F8043B013405
:10026C009847A642F9D870BD8C1200088C12000871
:10027C008C12000890120008830730B547D0541E2A
:10028C00002A3ED0CAB2034601E0013C39D303F840
:10029C00012B9D07F9D1032C2CD9CDB205EB0525EB
:1002AC000F2C05EB054535D9A4F1100222F00F0CEB
:1002BC0003F1100EE6444FEA121C1A46C2E900552F
:1002CC00C2E9025510327245F8D10CF1010214F05A
:1002DC000C0F03EB021204F00F0C13D0ACF104035F
:1002EC0023F003030433134442F8045B9342FBD121
:1002FC000CF003042CB1C9B21C4403F8011BA3423B
:10030C00FBD130BD64461346002CF4D1F9E703460B
:10031C001446C0E71A46A446E0E700BF53B94AB9F1
:10032C00002908BF00281CBF4FF0FF314FF0FF30F1
:10033C0000F06AB9ADF1080C6DE904CE00F006F8D6
:10034C00DDF804E0DDE9022304B070472DE9F04745
:10035C00089D0E4604460F46002B4AD194468C4508
:10036C00B2FA82F260D942B1C2F12003974020FA6E
:10037C0003F30CFA02FC1F4394404FEA1C4E1FFA85
:10038C008CF6B7FBFEF1230C0EFB117743EA074307
:10039C0001FB06F098420AD91CEB030301F1FF376D
:1003AC0080F01581984240F21281023963441B1A85
:1003BC00A4B2B3FBFEF00EFB103344EA034400FB83
:1003CC0006F6A6420AD91CEB040400F1FF3380F0B8
:1003DC000081A64240F2FD806444023840EA0140AC
:1003EC00A41B00211DB1D4400023C5E90043BDE886
:1003FC00F0878B4205D90DB1C5E9000100210846F3
:10040C00F5E7B3FA83F1002946D1B34202D3824215
:10041C0000F2F580841A66EB030201201746002DCA
:10042C00E5D0C5E90047E2E7002A40F09380A1EB54
:10043C000C034FEA1C471FFA8CFE0121B3FBF7F6A5
:10044C0007FB1630230C43EA00430EFB06F09842E0
:10045C0008D91CEB030306F1FF3802D2984200F2D4
:10046C00D08046461B1AA4B2B3FBF7F007FB10333F
:10047C0044EA03440EFB00FEA64508D91CEB040419
:10048C0000F1FF3302D2A64500F2B6801846A4EB69
:10049C000E0440EA0640A5E7C1F120078B4022FA82
:1004AC0007FC4CEA030C06FA01FE20FA07F426FAC4
:1004BC0007F344EA0E0400FA01F84FEA1C404FEA35
:1004CC001449B3FBF0FE1FFA8CF600FB1E3349EA0D
:1004DC0003430EFB06F9994502FA01F20BD91CEB0A
:1004EC0003030EF1FF3A80F08580994540F282803B
:1004FC00AEF1020E6344A3EB0909A4B2B9FBF0F30D
:10050C0000FB139944EA094403FB06F6A64208D9FA
:10051C001CEB040403F1FF3068D2A64266D9023BFF
:10052C00644443EA0E40A41BA0FB02E6B4427346AB
:10053C00B14652D34FD05DB1B8EB030264EB090462
:10054C0004FA07F722FA01F31F43CC40C5E9007403
:10055C0000214CE7C2F1200120FA01F30CFA02FC55
:10056C0026FA01F1964033434FEA1C471FFA8CFEE2
:10057C00B1FBF7F007FB1016190C41EA064100FB22
:10058C000EF68E4204FA02F408D91CEB010100F1BC
:10059C00FF382DD28E422BD902386144891B9BB275
:1005AC00B1FBF7F607FB161143EA014306FB0EF10C
:1005BC00994208D91CEB030306F1FF3814D2994277
:1005CC0012D9023E63445B1A46EA004136E73946CB
:1005DC00EDE6184602E7F045ADD2BEEB020366EB42
:1005EC000C060138B146A6E74646ECE7034698E709
:1005FC004046D3E7D6467EE76444023847E70846D0
:10060C000DE7023E63442DE7704700BF72B6FEE76C
:10061C0000B595B03022002108A8FFF72DFE00236D
:10062C000393049305930693079301931F4A116C4C
:10063C0041F080511164126C02F080520192019AC7
:10064C0002931B4A136823F4404343F48043136022
:10065C00136803F440430293029B012308934FF465
:10066C008033099302220E924FF480030F930423DC
:10067C001093482111911292139308A800F078F866
:10068C0080B90F23039302210491002305934FF4A7
:10069C0080520692079303A800F0D4FA20B915B043
:1006AC005DF804FBFFF7B2FFFFF7B0FF0038024024
:1006BC000070004008B500F00FFDFFF7A9FF00F037
:1006CC0041FD29E00133154A9342FBDD0121084627
:1006DC0000F06EFD0121022000F06AFD00210320D4
:1006EC0000F066FD0021042000F062FD002300E014
:1006FC0001330A4A9342FBDD0021012000F058FD32
:10070C000021022000F054FD0121032000F050FDD7
:10071C000121042000F04CFD0023D4E73F420F00E0
:10072C00FEE7FEE7FEE7FEE7FEE77047704770471F
:10073C0008B500F0EBFC08BD82B0002100910B4B1A
:10074C005A6C42F480425A645A6C02F48042009211
:10075C00009A01911A6C42F080521A641B6C03F0DF
:10076C0080530193019B02B0704700BF00380240D8
:10077C00002800F0E08170B582B00446036813F0E5
:10078C00010F3BD09F4B9B6803F00C03042B2CD028
:10079C009C4B9B6803F00C03082B21D06368B3F5CA
:1007AC00803F4FD0B3F5A02F52D0964B1A6822F44D
:1007BC0080321A601A6822F480221A606368002B57
:1007CC0050D000F0AFFC05468E4B1B6813F4003F75
:1007DC0014D100F0A7FC401B6428F5D90320B1E12B
:1007EC00884B5B6813F4800FD8D0864B1B6813F4CE
:1007FC00003F03D06368002B00F09F81236813F047
:10080C00020F54D07F4B9B6813F00C0F3ED07D4BE6
:10081C009B6803F00C03082B33D0E368002B68D0E3
:10082C00794B01221A6000F07DFC0546754B1B6864
:10083C0013F0020F54D100F075FC401B0228F5D9BF
:10084C0003207FE16F4A136843F480331360B5E7EC
:10085C006C4B1A6842F480221A601A6842F4803297
:10086C001A60ABE700F05EFC0546664B1B6813F4A0
:10087C00003FC3D000F056FC401B6428F5D9032080
:10088C0060E1604B5B6813F4800FC6D15D4B1B6855
:10089C0013F0020F03D0E368012B40F05081594A4A
:1008AC00136823F0F803216943EAC103136023683A
:1008BC0013F0080F42D063696BB3534B0122C3F89A
:1008CC00802E00F02FFC05464E4B5B6F13F0020F91
:1008DC0034D100F027FC401B0228F5D9032031E16C
:1008EC00484A136823F0F803216943EAC1031360F3
:1008FC00DDE7454B00221A6000F014FC0546414B25
:10090C001B6813F0020FD2D000F00CFC401B022825
:10091C00F5D9032016E13C4B0022C3F8802E00F0E1
:10092C0001FC0546374B5B6F13F0020F06D000F04D
:10093C00F9FB401B0228F5D9032003E1236813F0CF
:10094C00040F77D02F4B1B6C13F0805F33D1002337
:10095C0001932C4B1A6C42F080521A641B6C03F0FE
:10096C0080530193019B0125284B1B6813F4807F56
:10097C0023D0A368012B34D0052B38D0214B1A6F10
:10098C0022F001021A671A6F22F004021A67A36898
:10099C00002B3DD000F0C6FB06461A4B1B6F13F024
:1009AC00020F46D100F0BEFB801B41F28833984207
:1009BC00F3D90320C6E00025D6E7144A136843F4A4
:1009CC008073136000F0AEFB0646104B1B6813F4EB
:1009DC00807FCED100F0A6FB801B0228F5D9032026
:1009EC00B0E0084A136F43F001031367CFE7054BE0
:1009FC001A6F42F004021A671A6F42F001021A676A
:100A0C00C5E700BF003802400000474200700040BC
:100A1C0000F088FB0646524B1B6F13F0020F08D0F8
:100A2C0000F080FB801B41F288339842F3D90320FD
:100A3C0088E0EDB9A369002B00F08380484A9268E6
:100A4C0002F00C02082A51D0022B17D0454B002281
:100A5C001A6600F067FB0446414B1B6813F0007FDD
:100A6C0042D000F05FFB001B0228F5D9032069E09F
:100A7C003B4A136C23F080531364DBE7394B0022A1
:100A8C001A6600F04FFB0546354B1B6813F0007FD0
:100A9C0006D000F047FB401B0228F5D9032051E09B
:100AAC00E369226A1343626A43EA8213A26A520818
:100ABC00013A43EA0243E26A43EA0263284A53607A
:100ACC00284B01221A6600F02DFB0446244B1B68B0
:100ADC0013F0007F06D100F025FB001B0228F5D98E
:100AEC0003202FE000202DE000202BE0012B2BD049
:100AFC001B4B5B6803F48001E269914226D103F041
:100B0C003F02216A8A4223D1616A47F6C0721A40B9
:100B1C00B2EB811F1ED103F44031A26A5208013A94
:100B2C00B1EB024F18D103F07063E26AB3EB026FC2
:100B3C0014D1002006E001207047012002E00120C2
:100B4C0000E0002002B070BD0120FBE70120F9E7B6
:100B5C000120F7E70120F5E70120F3E70120F1E799
:100B6C00003802400000474208B5334B9B6803F045
:100B7C000C03042B5BD0082B5BD12F4B5A6802F073
:100B8C003F025B6813F4800F2CD02B4B5868C0F3DA
:100B9C0088104FEA401CBCEB000C6EEB0E0E4FEABB
:100BAC008E1343EA9C634FEA8C11B1EB0C0163EB9F
:100BBC000E03DB0043EA5173C90011EB000C43F147
:100BCC000003590200234FEA4C2041EADC51FFF7A5
:100BDC00A5FB194B5B68C3F3014301335B00B0FB0E
:100BEC00F3F008BD144B5868C0F388104FEA401C52
:100BFC00BCEB000C6EEB0E0E4FEA8E1343EA9C63BB
:100C0C004FEA8C11B1EB0C0163EB0E03DB0043EAF2
:100C1C005173C90011EB000C43F10003990200233E
:100C2C004FEA8C2041EA9C51FFF778FBD1E703484F
:100C3C00D7E70348D5E700BF0038024000127A001E
:100C4C000024F400002800F09B8070B50D4604468B
:100C5C004F4B1B6803F00F038B4208D2CBB24C4AAC
:100C6C001370136803F00F038B4240F08B802368E2
:100C7C0013F0020F17D013F0040F04D0454A9368F9
:100C8C0043F4E0539360236813F0080F04D0414AF7
:100C9C00936843F4604393603E4A936823F0F003F7
:100CAC00A1680B439360236813F0010F32D0636883
:100CBC00012B21D09A1E012A25D9364A126812F02E
:100CCC00020F61D033498A6822F0030213438B6010
:100CDC0000F028FA06462F4B9B6803F00C03626861
:100CEC00B3EB820F16D000F01DFA801B41F2883353
:100CFC009842F0D9032042E0264A126812F4003FD1
:100D0C00E0D101203BE0234A126812F0007FD9D1D8
:100D1C00012034E01E4B1B6803F00F03AB4207D9D4
:100D2C00EAB21B4B1A701B6803F00F03AB422DD1B8
:100D3C00236813F0040F06D0164A936823F4E0538B
:100D4C00E1680B439360236813F0080F07D0114A36
:100D5C00936823F46043216943EAC1039360FFF76E
:100D6C0003FF0C4B9B68C3F303130B4AD35CD840B3
:100D7C000A4B18600A4B186800F088F9002070BD07
:100D8C00012070470120FAE70120F8E70120F6E77F
:100D9C00003C024000380240741200080800002099
:100DAC000400002000230F2B00F2F68070B582B0F7
:100DBC0066E085684FEA430E032404FA0EF425EA34
:100DCC000405CC6804FA0EF42C438460446824EACD
:100DDC0002044A68C2F300129A40224342605DE06A
:100DEC00DC08083450F8242003F00705AD004FF060
:100DFC000F0E0EFA05FE22EA0E0E0A69AA4042EA0E
:100E0C000E0240F824205DE0092200E0002202FAE4
:100E1C000EF22A430234614D45F82420604A94684E
:100E2C006FEA0C0224EA0C054E6816F4801F01D000
:100E3C004CEA04055A4CA560E46802EA04054E68C5
:100E4C0016F4001F01D04CEA0405554CE5606468AB
:100E5C0002EA04054E6816F4003F01D04CEA040582
:100E6C004F4C6560246822404D6815F4803F01D0DA
:100E7C004CEA04024A4C226001330F2B00F28A80A8
:100E8C0001229A400C6804EA020C32EA0404F3D101
:100E9C004C6804F00304013C012C8AD94A6802F026
:100EAC000302032A09D0C4685D000322AA4024EA85
:100EBC0002048A68AA402243C2604A6802F0030214
:100ECC00022A8DD004684FEA430E032202FA0EF276
:100EDC0024EA02044A6802F0030202FA0EF22243E8
:100EEC0002604A6812F4403FC6D0002201922D4A9B
:100EFC00546C44F480445464526C02F48042019269
:100F0C00019A9C08A51C254A52F8255003F0030EA3
:100F1C004FEA8E0E0F2202FA0EF225EA0205224A41
:100F2C0090423FF473AF02F58062904222D002F5FA
:100F3C008062904220D002F5806290421ED002F571
:100F4C00806290421CD002F5806290421AD002F569
:100F5C008062904218D002F58062904216D002F561
:100F6C008062904214D002F5806290423FF44CAF04
:100F7C000A224CE701224AE7022248E7032246E70D
:100F8C00042244E7052242E7062240E707223EE717
:100F9C0008223CE702B070BD704700BF003801402A
:100FAC00003C014000380240000002400AB181615F
:100FBC007047090481617047002808DB0901C9B238
:100FCC0000F1604000F5614080F80013704700F0BC
:100FDC000F000901C9B2014B1954704714ED00E020
:100FEC0000B500F00700C0F1070CBCF1040F28BFDE
:100FFC004FF0040C031D062B0FD9C31E4FF0FF3E00
:10100C000EFA0CF021EA000199400EFA03FE22EAD6
:10101C000E0241EA02005DF804FB0023EEE700003B
:10102C00074AD36823F4E0631B041B0C000200F492
:10103C00E060034343F0BF6343F40033D360704775
:10104C0000ED00E010B50446054BD868C0F3022053
:10105C00FFF7C6FF01462046FFF7AEFF10BD00BFED
:10106C0000ED00E00138B0F1807F0BD24FF0E023AF
:10107C005861054AF02182F823100020986107225C
:10108C001A6170470120704700ED00E010B504466E
:10109C000E4B1A784FF47A73B3FBF2F30C4A1068C8
:1010AC00B0FBF3F0FFF7DEFF68B90F2C01D901207C
:1010BC000AE0002221464FF0FF30FFF7C3FF054B3B
:1010CC001C60002000E0012010BD00BF00000020CB
:1010DC00080000200400002008B50B4B1A6842F4ED
:1010EC0000721A601A6842F480621A601A6842F43C
:1010FC0080721A600320FFF793FF0F20FFF7C6FFE3
:10110C00FFF71AFB002008BD003C0240034A11689F
:10111C00034B1B780B441360704700BF2800002062
:10112C0000000020014B1868704700BF2800002009
:10113C00034AD2F8883043F47003C2F88830704701
:10114C0000ED00E030B589B00024039404940594BC
:10115C00069407940194144B1A6B42F080021A63A4
:10116C001A6B02F080020192019A02941A6B42F0FF
:10117C0008021A631B6B03F008030293029B0B4DCE
:10118C0022464FF470412846FFF710FF4FF470438E
:10119C0003930123049305940323069303A9284680
:1011AC00FFF700FE09B030BD00380240000C0240D1
:1011BC0008B5012914BF002201220138032808D8E0
:1011CC00DFE800F002080E144FF400510A48FFF754
:1011DC00EDFE08BD4FF480510748FFF7E7FEF8E736
:1011EC004FF480410448FFF7E1FEF2E74FF4004171
:1011FC000148FFF7DBFEECE7000C0240DFF834D0CF
:10120C00FFF796FF0C480D490D4A002302E0D45815
:10121C00C4500433C4188C42F9D30A4A0A4C002334
:10122C0001E013600432A242FBD3FEF7FDFFFFF78F
:10123C0041FA704700000320000000200C00002041
:10124C00941200080C0000202C000020FEE7000087
:10125C00F8B500BFF8BC08BC9E467047F8B500BF97
:08126C00F8BC08BC9E46704767
:101274000000000000000000010203040607080942
:08128400D4F0FF7F010000001F
:04128C00150200083F
:04129000ED01000864
:0C12940001000000100000000024F40025
:0400000508001209D4
:00000001FF
